:020000040800F2
:10000000C0080020690500083D0300083F03000800
:1000100043030008470300084B03000800000000EA
:100020000000000000000000000000004F03000876
:1000300051030008000000005303000855030008A6
:100040008305000883050008830500088305000870
:100050008305000883050008830500088305000860
:100060008305000883050008830500088305000850
:100070008305000883050008830500088305000840
:100080008305000883050008830500088305000830
:100090008305000883050008830500088305000820
:1000A0008305000883050008830500088305000810
:1000B00083050008F70200081503000883050008FF
:1000C00083050008830500088305000883050008F0
:1000D000830500081722000883050008830500082F
:1000E00083050008830500088305000883050008D0
:1000F00083050008830500088305000883050008C0
:1001000083050008830500088305000883050008AF
:10011000830500088305000883050008830500089F
:10012000830500088305000883050008830500088F
:10013000830500088305000883050008830500087F
:10014000830500088305000883050008830500086F
:10015000830500088305000883050008830500085F
:10016000830500088305000883050008830500084F
:10017000830500088305000883050008830500083F
:10018000830500088305000800F002F800F060F81D
:100190000AA090E8000C82448344AAF10107DA45E2
:1001A00001D100F055F8AFF2090EBAE80F0013F0D4
:1001B000010F18BFFB1A43F001031847F439000080
:1001C000143A00000A444FF0000C10F8013B13F001
:1001D000070408BF10F8014B1D1108BF10F8015BA0
:1001E000641E05D010F8016B641E01F8016BF9D193
:1001F00013F0080F1EBF10F8014BAD1C0C1B09D1EA
:100200006D1E58BF01F801CBFAD505E014F8016B5B
:1002100001F8016B6D1EF9D59142D6D370470000ED
:100220000023002400250026103A28BF78C1FBD8FF
:10023000520728BF30C148BF0B6070471FB503F09D
:10024000B9F99DE8030003F039F81FBD10B510BDE2
:1002500003F02EF91146FFF7F1FF00F039F803F033
:100260004CF903B4FFF7F2FF03BC03F07DF9000083
:1002700070B50446A068C31705462A460121084602
:1002800002F0C1FD6068C31705462A4602210846F0
:1002900002F0B9FD2068C31705462A460321084627
:1002A00002F0B1FD70BD01683C2904D14168491CD0
:1002B00041600021016041683C2904D18168491CEA
:1002C00081600021416070470168491C01607047EE
:1002D00002F0E8F91548008881B242F2107002F08D
:1002E0001FFA02F071FE05E01148FFF7DCFF10482D
:1002F000FFF7BEFFF8E710B501210E4801F0A1FBA2
:10030000012806D10A48FFF7DFFF0121094801F063
:10031000A9FB10BD10B50121074801F092FB01288F
:1003200003D10121044801F09DFB10BD0000002015
:10033000340200200004004000080040704700BF65
:10034000FEE700BFFEE700BFFEE700BFFEE7704725
:1003500070477047704700000CB500200190009076
:100360007648006840F480307449086000BF7348E4
:10037000006800F4003000900198401C0190009843
:1003800018B90198B0F5A04FF1D16C48006800F49D
:10039000003010B10120009001E000200090009892
:1003A000012846D165484030006840F080506349DC
:1003B000403108606248006840F44040604908608D
:1003C0005E48083000685D490831086008460068EA
:1003D00040F4004008600846006840F4A0500860FF
:1003E0005848091F0860081F006840F08070091F06
:1003F000086000BF5148006800F000700028F9D084
:1004000040F20570504908604C480830006820F000
:1004100003004A49083108600846006840F00200BD
:10042000086000BF45480830006800F00C0008284C
:10043000F8D10CBD10B54548006840F47000434940
:1004400008603E48006840F001003C490860002018
:100450003A4908310860394800683D490840374941
:1004600008603C48091D0860081F006820F48020CF
:10047000091F0860002031490C310860FFF76CFF4C
:100480004FF0006031498039086010BD70B5002020
:100490000022022300240221284D08352D6805F092
:1004A0000C0020B1042806D0082834D107E02A4DDA
:1004B0002A4E356033E02A4D284E35602FE01F4D1F
:1004C0002D1D2D68C5F380541C4D2D1D2D6805F084
:1004D0003F0154B1224DB5FBF1F5184E361D36687B
:1004E000C6F3881605FB06F209E01B4DB5FBF1F5D6
:1004F000124E361D3668C6F3881605FB06F20F4D00
:100500002D1D2D68C5F301456D1C6B00B2FBF3F585
:10051000124E356003E0104D104E356000BF00BF35
:10052000064D08352D68C5F303150E4E705D0B4D55
:100530002D68C540094E356070BD0000003802408E
:100540000070004008544007003C024088ED00E085
:10055000FFFFF6FE103000240024F4000400002009
:10056000001BB700080000200948804709480047E1
:10057000FEE7FEE7FEE7FEE7FEE7FEE7FEE7FEE753
:10058000FEE7FEE704480549054A064B70470000B0
:100590003504000889010008C0020020C0080020BE
:1005A000C0040020C004002032490143324A1160D7
:1005B000704770B5002100230F22C4781CB32E4C65
:1005C000246804F4E064C4F5E064C4F30721C1F1D5
:1005D0000404E3B20A4144789C40E1B284781440B8
:1005E00021430C07210E254C05786155047804F051
:1005F0001F050124AC4005786D11AD0005F1E02523
:10060000C5F8004109E0047804F01F050124AC405E
:100610001B4D0678761145F8264070BD194A0A40F0
:100620000243154B1B1F1A60704739B1124A121D45
:1006300012680243104B1B1D1A6006E00E4A121D81
:10064000126882430C4B1B1D1A607047042808D1A6
:100650004FF0E021096941F004014FF0E0221161FF
:1006600007E04FF0E021096921F004014FF0E0229A
:10067000116170470000FA050CED00E000E400E0B5
:1006800080E100E080FFFF1F10B5044698488442D7
:1006900008D10121084600F086FB0021012000F06E
:1006A00082FB76E09348844208D10121022000F0C9
:1006B0007AFB0021022000F076FB6AE08E4884423B
:1006C00008D10121042000F06EFB0021042000F07D
:1006D0006AFB5EE08948844208D10121082000F0CD
:1006E00062FB0021082000F05EFB52E08448844257
:1006F00008D10121102000F056FB0021102000F04D
:1007000052FB46E07F48844208D10121202000F0BE
:100710004AFB0021202000F046FB3AE07A48844260
:1007200008D10121402000F03EFB0021402000F0D4
:100730003AFB2EE07548844208D10121802000F068
:1007400032FB0021802000F02EFB22E07048844222
:1007500008D10121801500F026FB0021A01500F032
:1007600022FB16E06B48844208D10121401500F0BD
:100770001AFB0021601500F016FB0AE0664884426F
:1007800007D10121001500F00EFB0021201500F01B
:100790000AFB10BDF0B50A4600210023002400BF6B
:1007A0003DE0012505FA01F3156805EA03049C42C2
:1007B00034D105684F000326BE40B5430560157966
:1007C0004E00B5400668354305601579012D02D00D
:1007D0001579022D16D185684F000326BE40B5431A
:1007E000856055794E00B54086683543856045681B
:1007F00001268E40B5434560456896798E40B6B275
:1008000035434560C5684F000326BE40B543C5600B
:10081000D5794E00B540C6683543C560491C1029DE
:10082000BFD3F0BD4FF6FF7101600021017141712E
:100830008171C171704708B54FF480320092009AFF
:100840000A430092009AC261C161009AC261C26902
:100850000092C269009208BD0246002013690B4055
:100860000BB1012000E0002070470146086980B20A
:1008700070470246002053690B400BB1012000E095
:10088000002070470146486980B270470183704775
:10089000418370470AB1018300E0418370474161A1
:1008A000704742694A4042617047F0B50023002416
:1008B0004D07ED0E02FA05F3CE1000F1200555F8B4
:1008C00026504E07F70E0F26BE40B543CF1000F15D
:1008D000200646F82750CE1000F1200555F8265086
:1008E00045EA0304CE1000F1200545F82640F0BD8E
:1008F000000002400004024000080240000C0240D8
:10090000001002400014024000180240001C024087
:10091000002002400024024000280240F9480068FC
:1009200040F00100F74908600020F64908310860EE
:10093000F4480068F4490840F2490860F348091D8A
:100940000860F348EF4984310860F0481038091D09
:100950000860EC48006820F48020EA490860002024
:10096000E8490C310860E7498C3108607047002184
:10097000E44A921C117011460870704710B5014688
:100980000022002300204A11012A02D1DD4C2368F5
:1009900008E0022A03D1DB4C7034236802E0D94C12
:1009A0007434236801F01F02012494401C400CB1F0
:1009B000012000E0002010BD38B500200090002488
:1009C000002500BF3120FFF7D9FF05460098401CE5
:1009D00000900098B0F5A04F01D0002DF2D031204A
:1009E000FFF7CCFF08B1012400E00024204638BD09
:1009F00001460020C34A106820F0F80040EAC10018
:100A000010607047C349086070470021BD4A7032CA
:100A100011701170012802D004280AD104E00121CC
:100A2000B84A7032117005E00521B64A7032117073
:100A300000E000BF00BF7047B7490860704770B55D
:100A4000049C41EA82150126C6EB530645EA064599
:100A5000054345EA0465AB4E361D356070BDAD49B2
:100A600008667047820142EA0172A64B84331A601D
:100A70007047A8498866704710B5830143EA01634F
:100A800043EA02739F4C8834236010BDA149086774
:100A90007047A049C864704702460020994B08334C
:100AA000186820F0EC6042EA01031843954B0833C4
:100AB0001860704702460020924B0833186820F0F7
:100AC000784042EA010318438E4B083318607047A0
:100AD000014600208B4A0832106820F003000843CA
:100AE0001060704787480830006800F00C007047BD
:100AF00001460020834A0832106820F0F0000843C5
:100B000010607047014600207E4A0832106820F4C9
:100B1000E05008431060704701460020794A0832CF
:100B2000106820F4604040EAC10010607047F0B5E2
:100B3000002100220024022500260223714F0837DD
:100B40003F6807F00C0121B1042905D0082937D1ED
:100B500005E0724F076036E0714F076033E0694F80
:100B60003F1D3F68C7F38056664F3F1D3F6807F043
:100B70003F036EB16A4FB7FBF3F7DFF888C10CF1A2
:100B8000040CDCF800C0CCF3881C07FB0CF40CE070
:100B9000624FB7FBF3F7DFF86CC10CF1040CDCF823
:100BA00000C0CCF3881C07FB0CF4564F3F1D3F6878
:100BB000C7F301477F1C7D00B4FBF5F7076002E037
:100BC000564F076000BF00BF4E4F08373F6807F021
:100BD000F0010909534F7A5C0768D7404760494FD5
:100BE00008373F6807F4E051890A4E4F7A5C47683E
:100BF000D7408760434F08373F6807F46041490B8F
:100C0000484F7A5C4768D740C760F0BD002100F4C8
:100C10004072B2F5407F0AD13A4A0832116821F495
:100C2000F811414A02401143364A08321160354AF0
:100C300070321268C0F30B031A43324B70331A60E0
:100C40007047354944390860704733494039086076
:100C5000704736490860704701460020294A8C32A7
:100C6000106820F01F004A1E1043264A8C32106084
:100C7000704701460020234A8C32106820F4F85057
:100C80004A1E40EA02201F4A8C321060704701461B
:100C900000201C4A8C32106820F440100843106079
:100CA000704701460020174A8C32106820F440003B
:100CB00008431060704701460020124A8C321068C9
:100CC00020F44030084310607047194908607047AD
:100CD00039B10C4A3032126802430A4B30331A6081
:100CE00006E0084A303212688243064B30331A60FD
:100CF0007047F9B1034A343212680243014B34336E
:100D00001A601CE000380240FFFFF6EA10300024B1
:100D10000030002000004742800E47420024F400CB
:100D2000001BB70018000020FFFCFF0F5C014742CA
:100D3000E01147428F4A126882438E4B1A60704717
:100D400039B18C4A121D126802438A4B1B1D1A606E
:100D500006E0884A121D12688243864B1B1D1A60EA
:100D6000704739B1834A0C3212680243814B0C330D
:100D70001A6006E07F4A0C32126882437D4B0C33C6
:100D80001A60704739B17B4A103212680243794BBE
:100D900010331A6006E0774A103212688243754BAE
:100DA00010331A60704739B1724A243A126802430C
:100DB000704B243B1A6006E06E4A243A1268824364
:100DC0006C4B243B1A60704739B16A4A203A12686A
:100DD0000243684B203B1A6006E0664A203A1268DC
:100DE0008243644B203B1A60704739B1614A1C3A18
:100DF000126802435F4B1C3B1A6006E05D4A1C3AD6
:100E0000126882435B4B1C3B1A60704739B1594AE8
:100E1000143A12680243574B143B1A6006E0554AD5
:100E2000143A12688243534B143B1A60704739B12D
:100E3000504A103A126802434E4B103B1A6006E0CB
:100E40004C4A103A126882434A4B103B1A60704772
:100E500039B1484A1C3212680243464B1C331A60AF
:100E600006E0444A1C3212688243424B1C331A602B
:100E7000704739B13F4A2032126802433D4B20335C
:100E80001A6006E03B4A203212688243394B203315
:100E90001A60704739B1374A243212680243354B21
:100EA00024331A6006E0334A243212688243314BFD
:100EB00024331A60704739B12E4A2C32126802432B
:100EC0002C4B2C331A6006E02A4A2C3212688243DB
:100ED000284B2C331A60704739B1264A30321268D9
:100EE0000243244B30331A6006E0224A3032126843
:100EF0008243204B30331A607047012808D11D49C6
:100F00003C31096841F008011A4A3C32116007E09F
:100F100018493C31096821F00801164A3C32116039
:100F2000704739B1134A273A12780243114B273BD5
:100F30001A7006E00F4A273A127882430D4B273B7E
:100F40001A7070470B484030006840F080700949C3
:100F500040310860704701460020064A283A12686E
:100F60000A400AB1012000E00020704701492639FB
:100F7000087070473438024010B50446FE48844279
:100F800008D101210846FFF752FF00210120FFF799
:100F90004EFF9DE0B4F1804F08D101210846FFF7D4
:100FA00035FF00210120FFF731FF91E0F348844233
:100FB00008D101210220FFF729FF00210220FFF7BD
:100FC00025FF85E0EE48844208D101210420FFF787
:100FD0001DFF00210420FFF719FF79E0E948844252
:100FE00008D101210820FFF711FF00210820FFF799
:100FF0000DFF6DE0E448844208D101211020FFF785
:1010000005FF00211020FFF701FF61E0DF48844267
:1010100008D101212020FFF7F9FE00212020FFF751
:10102000F5FE55E0DA48844208D101210220FFF79D
:10103000FEFE00210220FFF7FAFE49E0D548844277
:1010400009D101210804FFF7F2FE00214FF480309E
:10105000FFF7EDFE3CE0D048844209D1012148046D
:10106000FFF7E5FE00214FF40030FFF7E0FE2FE030
:10107000CA48844209D101218804FFF7D8FE002123
:101080004FF48020FFF7D3FE22E0C548844208D108
:1010900001214020FFF7BAFE00214020FFF7B6FEF5
:1010A00016E0C048844208D101218020FFF7AEFE3F
:1010B00000218020FFF7AAFE0AE0BB48844207D146
:1010C00001218015FFF7A2FE0021A015FFF79EFE6B
:1010D00010BD00220288A84B98420ED0AC4B98421B
:1010E0000BD0B0F1804F08D0A44B984205D0A44B50
:1010F000984202D0A34B984204D14FF68F731A4006
:101100004B881A43A04B984207D0A04B984204D07A
:101110004FF6FF431A400B891A4302804B68C362A3
:101120000B880385944B984202D0994B984201D189
:101130008B7A03860123838270474FF0FF31416031
:101140000021018001814180817270470185828286
:1011500070470A46002101884FF68F7319401143EA
:101160000180704741627047C16270470146486A1A
:1011700070470146088D704721B1028842F0020293
:10118000028004E002884FF6FD731A400280704727
:1011900021B1028842F00402028004E002884FF686
:1011A000FB731A400280704721B1028842F080022E
:1011B000028004E002884FF67F731A400280704775
:1011C00002884FF6F7731A40028002880A430280B1
:1011D000704702884FF6FF431A40028002880A4394
:1011E0000280704721B1028842F00102028004E0CF
:1011F00002884FF6FE731A400280704770B50024D3
:1012000000220023058C4FF6FE7635400584028CC3
:101210008388048B4FF68F752C40B51E2C400D88AB
:101220002C43751E2A408D892A434D882A43524DEE
:10123000A84202D0564DA84213D14FF6F7752A4066
:10124000CD892A434FF6FB752A408D882A434FF6F5
:10125000FF652B404FF6FF552B400D8A2B434D8ADF
:101260002B43838004838D684563028470BD70B511
:10127000002400220023058C4FF6EF7635400584CC
:10128000028C8388048B48F6FF752C404FF6FF458F
:101290002C400D884FF6FF7606EA05252C434FF6C5
:1012A000DF752A408D8906EA05152A434D8806EA2E
:1012B00005152A43304DA84202D0354DA8421DD114
:1012C0004FF67F752A40CD894FF6FF7606EA051561
:1012D0002A434FF6BF752A408D8806EA05152A4332
:1012E0004FF6FF352B404FF2FF752B400D8A06EA73
:1012F00085052B434D8A06EA85052B4383800483AD
:101300008D688563028470BD70B5002400220023BF
:10131000058C4FF6FF6635400584028C8388848BEC
:101320004FF68F752C404FF6FC752C400D882C43E2
:101330004FF6FF552A408D894FF6FF7606EA0525C0
:101340002A434D8806EA05252A430B4DA84202D0C0
:101350000F4DA84238D14FF2FF752A40CD894FF684
:10136000FF7606EA05252A434FF6FF352A408D8889
:1013700006EA05252A4319E0000001400004004068
:1013800000080040000C0040001000400014004025
:101390000004014000400140004401400048014079
:1013A00000180040001C0040002000404EF6FF7571
:1013B0002B404DF6FF752B400D8A06EA05152B4391
:1013C0004D8A06EA05152B43838084838D68C563A7
:1013D000028470BD70B5002200230024058C4EF6F7
:1013E000FF7635400584038C8488828B48F6FF7530
:1013F0002A404FF6FF452A400D884FF6FF7606EA51
:1014000005252A434DF6FF752B408D8906EA0535E3
:101410002B434D8806EA05352B43FE4DA84202D0EA
:10142000FD4DA84208D14BF6FF752C400D8A4FF6B2
:10143000FF7606EA85152C43848082838D680564D7
:10144000038470BD002101804180818081608181A1
:10145000C18101824182704770B50346002000249B
:101460001846183001258D40ACB21D8CA5431D8453
:1014700009B108290AD100EB610005684FF68F76A3
:10148000354005600568154305600FE00D1FC5F385
:101490004E052844056848F6FF7635400560056826
:1014A0004FF6FF7606EA02263543056070BD4163BC
:1014B000704781637047C1637047016470470A4693
:1014C0000021018B4FF68F73194011430183704740
:1014D0000A460021018B48F6FF7319404FF6FF734F
:1014E00003EA02231943018370470A460021818BD6
:1014F0004FF68F7319401143818370470A460021CC
:10150000818B48F6FF7319404FF6FF7303EA0223FD
:101510001943818370470A460021018B4FF6F77308
:1015200019401143018370470A460021018B4FF295
:10153000FF7319404FF6FF7303EA02231943018337
:1015400070470A460021818B4FF6F773194011430B
:10155000818370470A460021818B4FF2FF73194047
:101560004FF6FF7303EA02231943818370470A464B
:101570000021018B4FF6FB73194011430183704723
:101580000A460021018B4FF6FF3319404FF6FF73D7
:1015900003EA02231943018370470A460021818B25
:1015A0004FF6FB7319401143818370470A460021AF
:1015B000818B4FF6FF3319404FF6FF7303EA022386
:1015C0001943818370470A460021018B4FF67F73D0
:1015D00019401143018370470A460021018BC1F372
:1015E0000E014FF6FF7303EA02231943018370478C
:1015F0000A460021818B4FF67F7319401143818386
:1016000070470A460021818BC1F30E014FF6FF732C
:1016100003EA02231943818370470A460021018CA3
:101620004FF6FD7319401143018470470A460021AB
:10163000018C4FF6F77319401143018470470A4635
:101640000021018C4FF6DF7319404FF6FF7303EA58
:1016500002131943018470470A460021018C4FF69A
:101660007F7319404FF6FF7303EA02131943018495
:1016700070470A460021018C4FF6FF5319404FF680
:10168000FF7303EA02231943018470470A460021CD
:10169000018C4FF2FF7319404FF6FF7303EA0223E8
:1016A0001943018470470A460021018C4DF6FF73EF
:1016B00019404FF6FF7303EA023319430184704760
:1016C00030B5002301248C40A3B2048C9C430484D5
:1016D000048C02FA01F5ADB22C43048430BD30B560
:1016E000002304248C40A3B2048C9C430484048C07
:1016F00002FA01F5ADB22C43048430BD828B4FF267
:10170000FF331A408283828B4FF6FF7303EA012373
:101710001A4382837047F0B50C461546002100221B
:101720000026078C4EF6FF7C07EA0C070784818BA6
:10173000028C4FF6FF7707EA043640F6FF47394040
:101740004FF6FF7707EA052739434FF6FF7707EA99
:101750000337394345F6FF773A4046F480573A431A
:1017600081830284F0BD828B4FF6F3731A4082832B
:10177000828B0A4382837047F0B50C4615460021E0
:1017800000220026078C4FF6FF6C07EA0C0707843F
:10179000818B028C4FF6FF7707EA04264FF60C7711
:1017A00039404FF6FF7707EA03172F4339434FF2CB
:1017B000FF573A4046F480773A4381830284F0BD74
:1017C000028B4FF2FF331A400283028B4FF6FF73F6
:1017D00003EA01231A4302837047F0B50C4615460D
:1017E000002100220026078C4FF6EF7C07EA0C0749
:1017F0000784018B028C4FF6FF7707EA041640F648
:10180000FF4739404FF6FF7707EA033739434FF672
:10181000FF7703E0000001400004014007EA0527CC
:1018200039434FF65F773A4046F010073A43018359
:101830000284F0BD028B4FF6F3731A400283028BD1
:101840000A4302837047F0B50C461546002100227A
:10185000068C4FF6FE773E400684018B028C4FF6D5
:101860000C7631407E1C06EA03162E4331434FF6B8
:10187000F576324044F00106324301830284F0BD24
:1018800070B505460C46208850B92389A288618826
:101890002846FFF7D8FFE1882846FFF7CBFF25E071
:1018A000208804280AD12389A28861882846FFF766
:1018B00094FFE1882846FFF783FF17E02088082877
:1018C0000AD12389A28861882846FFF755FFE1885D
:1018D0002846FFF748FF09E02389A2886188284647
:1018E000FFF719FFE1882846FFF708FF70BD0021C8
:1018F00001804180012181800021C18001817047E8
:101900002DE9F04105460C4600260127608808B9FC
:10191000022600E00026A088012801D1022700E06D
:1019200001272088A0B92389A28861882846FFF76B
:101930008AFFE1882846FFF77DFF23893A46314632
:101940002846FFF74AFFE1882846FFF739FF13E0F2
:101950002389A28861882846FFF73FFFE18828464F
:10196000FFF72EFF23893A4631462846FFF76BFFE3
:10197000E1882846FFF75EFFBDE8F0810146486B2D
:1019800070470146886B70470146C86B7047014637
:10199000086C70470A884B881A438B881A43CB8897
:1019A0001A430B891A434B891A438B891A43A0F8AF
:1019B000442070470021018041808180C1800181E5
:1019C00041818181704731B1B0F8442042F4004236
:1019D000A0F8442005E0B0F84420C2F30E02A0F8BD
:1019E0004420704721B1828842F00402828004E0E2
:1019F00082884FF6FB731A408280704721B182883B
:101A000042F00102828004E082884FF6FE731A40A1
:101A1000828070471AB183890B43838102E08389F6
:101A20008B43838170478182704702460020138A6E
:101A30000B400BB1012000E000207047CA43028236
:101A4000704730B50246002000230024158A05EABD
:101A50000103958905EA010413B10CB1012000E0EE
:101A6000002030BDCA430282704741EA0203A0F859
:101A7000483070471AB183890B43838102E0838920
:101A80008B438381704721B1828842F008028280B3
:101A900004E082884FF6F7731A408280704701890C
:101AA0004FF6F8721140018170470A460021018902
:101AB0004FF68F73194011430181704730B50446CA
:101AC0000D4629462046FFF7F0FF208940F0070029
:101AD000208130BD2DE9F04104460D4616461F46D3
:101AE000602D06D13B46012231462046FFF775FEA8
:101AF00005E03B46012231462046FFF7A4FE294679
:101B00002046FFF7D2FF208940F007002081BDE882
:101B1000F08130B50C4600210189C9B24FF6FF753E
:101B200005EA0325154325432943018130BD2DE9ED
:101B3000F04105460E4617469846002443463A466D
:101B400031462846FFF7E5FF2C894FF6F870044030
:101B500044F007044FF68F70044044F070042C8169
:101B6000BDE8F081F0B504460D4616461F463B46DB
:101B7000324629462046FFF7CCFF208940F48040BA
:101B80002081F0BD82884FF68F731A408280828850
:101B90000A438280704702894FF6F8731A40028127
:101BA00002890A430281704702894FF67F731A4007
:101BB000028102890A4302817047F0B50C4615463E
:101BC0001E460021002200230189028B038C4FF660
:101BD000F877394021434FF6FC473A4040F201176D
:101BE0003A434FF6DD773B404FF6FF7707EA06179B
:101BF0002F433B43018102830384F0BD21B18288DE
:101C000042F08002828004E082884FF67F731A409F
:101C100082807047A0F850107047000010B504464D
:101C2000FA48844208D101211020FFF700F9002171
:101C30001020FFF7FCF857E0F548844209D1012154
:101C40004804FFF7E3F800214FF40030FFF7DEF817
:101C50004AE0F048844209D101218804FFF7D6F810
:101C600000214FF48020FFF7D1F83DE0EA4884429C
:101C700009D10121C804FFF7C9F800214FF4002061
:101C8000FFF7C4F830E0E548844209D10121080596
:101C9000FFF7BCF800214FF48010FFF7B7F823E0FE
:101CA000DF48844208D101212020FFF7C0F800213D
:101CB0002020FFF7BCF817E0DA48844209D101215F
:101CC0008807FFF7A3F800214FF08040FFF79EF848
:101CD0000AE0D548844207D101214005FFF796F874
:101CE00000216005FFF792F810BD2DE9FF4705467A
:101CF0000E460024A14600BFA046B08900B100BF37
:101D00002C8A24F44054F08804432C82AC8941F29C
:101D10000C608443B08831890843718908430443C7
:101D2000AC81AC8A24F44074B0890443AC82684628
:101D3000FEF7FDFEB548854202D0B948854202D182
:101D4000DDF80C9001E0DDF80890A88900F400406F
:101D500040B109EBC90000EB091031684900B0FB44
:101D6000F1F707E009EBC90000EB091031688900C1
:101D7000B0FBF1F76420B7FBF0F004012009642107
:101D800001FB1078A88900F4004040B1322000EB3C
:101D9000C800B0FBF1F000F00700044308E0322077
:101DA00000EB08106421B0FBF1F000F00F000443D9
:101DB0002C81BDE8FF874FF416510160002181801E
:101DC000C18001810C21418100218181704710B5C2
:101DD00002460020108A20F470600B884C88234350
:101DE0008C882343CC8823431843108210BD0021E4
:101DF000018041808180C180704721B1828942F495
:101E00000052828104E082894DF6FF731A4082817C
:101E10007047028B02F47F420283028B0A430283E3
:101E2000704721B1828942F40042828103E08289B5
:101E3000C2F30E028281704721B1828A42F40062AD
:101E4000828204E0828A4FF2FF731A4082827047D6
:101E5000C1F308028280704701468888C0F30800F9
:101E60007047028A4FF6F0731A400282028A0A43D0
:101E70000282704721B1828942F00202828104E02D
:101E800082894FF6FD731A408281704782894FF232
:101E9000FF731A40828182890A4382817047028AD5
:101EA0004FF6DF731A400282028A0A4302827047A9
:101EB00021B1028A42F48042028204E0028A4BF697
:101EC000FF731A4002827047818941F001018181CC
:101ED000704721B1828A42F00802828204E0828A3D
:101EE0004FF6F7731A4082827047028BD2B2028398
:101EF000028B42EA01220283704721B1828A42F0BA
:101F00002002828204E0828A4FF6DF731A408282C6
:101F1000704721B1828A42F01002828204E0828AF4
:101F20004FF6EF731A4082827047828A4FF6FB7336
:101F30001A408282828A0A438282704721B1828A51
:101F400042F00202828204E0828A4FF6FD731A4058
:101F5000828270471AB1838A0B43838202E0838AAC
:101F60008B4383827047F0B503460024002600258A
:101F7000002040F66A17B94200D100BF1846C1F3ED
:101F8000421401F01F06012707FA06F5012C01D1C2
:101F90000C3004E0022C01D1103000E014301AB1F2
:101FA00007682F43076002E00768AF430760F0BD92
:101FB00002460020B1F5007F00D100BF13880B401E
:101FC0000BB1012000E00020704701F40072B2F56F
:101FD000007F00D100BFCA430280704770B502463F
:101FE000002400230025002040F66A16B14200D1EB
:101FF00000BFC1F3421501F01F03012606FA03F3E7
:10200000012D13D19689334017E0000000100140E4
:102010000044004000480040004C00400050004098
:102020000014014000780040007C0040022D02D1E5
:10203000168A334001E0968A33400C12012606FAD4
:1020400004F41688344013B10CB1012000E00020E4
:1020500070BD10B50022002340F66A14A14200D1E1
:1020600000BF0A1201249440A3B2DC43048010BDD7
:1020700010B504466FF00400FEF7E8FAE11704EB30
:102080005171C1F3C701394A11701046007800EB55
:102090004001C1EBC0104FF6FF7101EAC0003449A6
:1020A000088010BD0146314A12784A434FF0E023C0
:1020B0005A6100229A611A46126942F001021A61BD
:1020C00000BF4FF0E022106900F001021AB100F4E5
:1020D0008032002AF5D04FF0E022126922F001028E
:1020E0004FF0E0231A6100229A6170470146204AAE
:1020F00012884A434FF0E0235A6100229A611A463F
:10210000126942F001021A6100BF4FF0E02210692B
:1021100000F001021AB100F48032002AF5D04FF02D
:10212000E022126922F001024FF0E0231A6100223E
:102130009A61704770B504464FF4077094FBF0F055
:10214000C6B24FF4077094FBF0F100FB114085B26A
:1021500005E04FF40770FFF7C9FF701EC6B2002EEE
:10216000F7D115B12846FFF7C1FF70BD2800002048
:102170002A00002010B588B0044601210846FEF769
:10218000A7FD01211020FEF7FDFD07220921FE48D1
:10219000FEF78BFB07220A21FB48FEF786FB4FF474
:1021A000C060069002208DF81C008DF81D000020F4
:1021B0008DF81E0001208DF81F0006A9F248FEF7D9
:1021C000E9FA02940020ADF80C00ADF80E00ADF86D
:1021D0001000ADF814000C20ADF8120002A9EB4875
:1021E000FFF783FD25208DF8040001208DF8050000
:1021F0008DF806008DF8070001A8FEF7DAF9012234
:1022000040F22551E148FFF7AEFE0121DF48FFF71C
:10221000F4FD08B010BD10B540F22551DB48FFF7C2
:10222000DDFE00286DD0DA480068012820D1D948A9
:102230000068E8B9D548FFF70FFED749087008468F
:102240000078D649D64A12688854D5480068401CA0
:10225000D349086008460068022809DD0120CD49FD
:1022600008600102CF48FEF71CFB0020CC49086043
:10227000C7480068002844D1CB480068012804D032
:10228000C248FFF7E9FDC4490870C3480078242814
:1022900010D1C648006868B90020C1490860C44828
:1022A00000F044FF04462146C14800F05EFF0120D3
:1022B000BE490860B8480078242812D0BB4800689E
:1022C00001280ED1B448007826280AD0B2480078F8
:1022D000B749B34A12688854B1480068401CB049F5
:1022E0000860AD48007826280BD1B0480068012866
:1022F00007D10020AA490860AC4908600120AA491A
:10230000086010BD10B504462146A048FFF7A0FDA7
:1023100000BF80219D48FFF74BFE0028F9D010BD7B
:1023200070B505460C469B480068012841D1984885
:10233000006801283DD1994880783038974949781C
:10234000303901EB810100EB4101944800783038CD
:1023500000EBC00202EB001001EB800000EE100A5F
:10236000B8EEC00ADFED930A80EE201A85ED001A60
:102370002068401C20600020864908604E20FFF73E
:10238000C1FF5520FFF7BEFF4D20FFF7BBFF5F20C9
:10239000FFF7B8FF4F20FFF7B5FF4B20FFF7B2FF65
:1023A0005F20FFF7AFFF0D20FFF7ACFF0A20FFF71C
:1023B000A9FF70BD10B500217F48FEF713FF002173
:1023C0007E48FEF70FFF10BD70B506460024764824
:1023D0000068012858D100250EE0C5EB0511784AA8
:1023E00002EB4100314600F009FF20B92C460120E4
:1023F0007449086002E06D1C0A2DEEDD00BFE4B1F7
:102400005F20FFF77FFF4D20FFF77CFF4F20FFF796
:1024100079FF4420FFF776FF5F20FFF773FF04F199
:102420003001C8B2FFF76EFF2020FFF76BFF0D20D1
:10243000FFF768FF0A20FFF765FF14BB6520FFF771
:1024400061FF7220FFF75EFF7220FFF75BFF6F20D6
:10245000FFF758FF7220FFF755FF5F20FFF752FF8D
:1024600004F13001C8B2FFF74DFF2020FFF74AFF0B
:102470000D20FFF747FF0A20FFF744FF00205149D6
:1024800008600020484908604E480068012879D15A
:10249000012C05D1FFF78EFF21024248FEF7F8F923
:1024A000022C05D1FFF786FFE1013E48FEF7EEF969
:1024B000032C06D1FFF77EFF4FF480414248FEF720
:1024C000E7F9042C05D1FFF775FF21033E48FEF71D
:1024D000DDF9052C06D1FFF76DFF4FF400413A48B6
:1024E000FEF7D6F9062C06D1FFF764FF4FF4004142
:1024F0003548FEF7CBF9072C10D1FFF75BFF4FF4FF
:1025000080712848FEF7C2F94FF480412E48FEF74B
:10251000BDF94FF400412C48FEF7B8F9082C13D14F
:1025200061012048FEF7B4F9E1022748FEF7B0F94F
:1025300021032548FEF7ACF900212048FEF752FEA2
:1025400001211D48FEF74EFE092C16D14FF4807173
:102550001448FEF79DF94FF480411B48FEF798F9A7
:102560004FF400411848FEF793F900211248FEF796
:1025700039FE01211148FEF735FE0A2C3BD14FF4FC
:10258000807123E082E00000000002400010014062
:102590002C020020100200201C0200200C0200204F
:1025A000200200200008024018020020140200202F
:1025B000400200200000C842000400400008004023
:1025C0002C00002024020020000C02403048FEF7BE
:1025D0005FF94FF480412F48FEF75AF94FF400415C
:1025E0002C48FEF755F900212B48FEF7FBFD002192
:1025F0002A48FEF7F7FD0A2C22D05F20FFF782FE63
:102600004D20FFF77FFE4F20FFF77CFE4420FFF7B1
:1026100079FE5F20FFF776FE04F13001C8B2FFF7C4
:1026200071FE5F20FFF76EFE4F20FFF76BFE4B2021
:10263000FFF768FE5F20FFF765FE2020FFF762FED0
:102640000A2C1AD14120FFF75DFE4C20FFF75AFEFD
:102650004C20FFF757FE5F20FFF754FE4320FFF7A3
:1026600051FE4C20FFF74EFE4F20FFF74BFE53204C
:10267000FFF748FE4520FFF745FE0D20FFF742FE1D
:102680000A20FFF73FFE00200549086070BD0000EA
:1026900000080240000C0240000400400008004016
:1026A000240200201CB501210C20FEF711FB0120A3
:1026B0008DF8040000208DF8060002208DF8070038
:1026C00003208DF805008003009069461248FEF74C
:1026D00061F801208DF8040000208DF8060002202A
:1026E0008DF8070003208DF805004FF480700090EE
:1026F00069460A48FEF74EF84FF480410648FEF757
:10270000C7F84FF480710548FEF7C2F84FF4004156
:102710000148FEF7BDF81CBD000C02400008024055
:102720007FB505460C4601210220FEF71AFB37480B
:10273000FFF7B5F9681E0290601E80B2ADF8040084
:102740000020ADF80600ADF80C008DF80E0001A9D0
:102750002E48FEF7BEFC01212C48FFF76FF94FF41D
:10276000A060FDF721FF1D208DF8000001208DF8ED
:10277000030000208DF801008DF802006846FDF787
:1027800018FF012211462148FFF744F901211F4893
:10279000FEF728FD7FBD7FB505460C4601210420CC
:1027A000FEF7DFFA1A48FFF77AF9681E0290601EFA
:1027B00080B2ADF804000020ADF80600ADF80C00C2
:1027C0008DF80E0001A91248FEF783FC0121104884
:1027D000FFF734F94FF4A060FDF7E6FE1E208DF8F8
:1027E000000001208DF803008DF801008DF8020033
:1027F0006846FDF7DEFE012211460548FFF70AF99B
:1028000001210348FEF7EEFC7FBD000000040040FC
:102810000008004010B504460022012120466368EC
:1028200098470122002120466368984701221146FB
:1028300020466368984700221146204663689847FF
:1028400010BD10B5044634B1012C06D0022C08D0BE
:10285000032C0ED109E000BF0CE00A20FFF722FC98
:1028600008E00120FFF766FC04E00120FFF71AFCF6
:1028700000E000BF00BF012010BD10B504460022DB
:10288000114620466368984700220121204663686C
:102890009847012200212046636898470320FFF7EC
:1028A000D0FF002211462046636898470122114656
:1028B00020466368984710BD10B5044600221146B3
:1028C000204663689847012211462046636898476E
:1028D000012200212046636898470320FFF7B1FFDB
:1028E000002211462046636898470122114620467F
:1028F0006368984710BD2DE9F0410446002607257E
:102900001AE0002211462046636898470122002100
:1029100020466368984720698047074607F0010012
:10292000002803DD0120A840304303E00121A94035
:1029300026EA0100C6B26D1E002DE2DA3046BDE87F
:10294000F08170B5044600250122114620466368D7
:102950009847012200212046636898470BE0681CD5
:10296000C5B20020FFF76DFFC82D04DD2046FFF73C
:1029700051FF012070BD206980470028EFD100225F
:1029800011462046636898470020F3E72DE9F0419F
:1029900004460E46072513E046FA05F000F001074D
:1029A0003A460121204663689847012200212046CB
:1029B00063689847002211462046636898476D1E59
:1029C000002DE9DABDE8F08110B5044601220021AE
:1029D000204663689847012211462046636898475D
:1029E00000220121204663689847002211462046B4
:1029F0006368984710BD2DE9F04781460D4616469D
:102A00001F46DDF820804846FFF7DEFF05F0FE0197
:102A10004846FFF7BBFF4846FFF793FF18B14FF05A
:102A2000FF30BDE8F08731464846FFF7AFFF484624
:102A3000FFF787FF10B16FF00100F2E74846FFF79C
:102A4000C3FF45F001014846FFF7A0FF4846FFF7E6
:102A500078FF10B16FF00200E3E700240FE0484672
:102A6000FFF749FF3855A8F10100A04203D14846BD
:102A7000FFF722FF02E04846FFF7FFFE641C4445D3
:102A8000EDDB4846FFF7C6FE0020CAE72DE9F04718
:102A900080460D4616461F46DDF820904046FFF75B
:102AA00093FF05F0FE014046FFF770FF4046FFF739
:102AB00048FF18B14FF0FF30BDE8F087314640467F
:102AC000FFF764FF4046FFF73CFF10B16FF00100D5
:102AD000F2E700240BE0395D4046FFF757FF404620
:102AE000FFF72FFF10B16FF00200E5E7641C4C45C3
:102AF000F1DB4046FFF78EFE0020DDE72DE9F041D7
:102B000007460C4616461D46002028703846FFF73B
:102B10005BFF04F0FE013846FFF738FF3846FFF749
:102B200010FF18B14FF0FF30BDE8F0813146384654
:102B3000FFF72CFF3846FFF704FF10B16FF00100DC
:102B4000F2E73846FFF740FF44F001013846FFF74F
:102B50001DFF3846FFF7F5FE10B16FF00200E3E706
:102B60003846FFF7C8FE28703846FFF7A5FE3846FE
:102B7000FFF750FE0020D7E72DE9F04107460C464D
:102B800015461E463846FFF71FFF04F0FE01384683
:102B9000FFF7FCFE3846FFF7D4FE18B14FF0FF30C8
:102BA000BDE8F08129463846FFF7F0FE3846FFF7CA
:102BB000C8FE10B16FF00100F2E731463846FFF76A
:102BC000E5FE3846FFF7BDFE10B16FF00200E7E703
:102BD0003846FFF71FFE0020E2E770B504460E46B8
:102BE000154616B1012E14D109E0002D03DD012098
:102BF000E168884702E00020E16888470AE0002D8C
:102C000003DD0120A168884702E00020A168884711
:102C100000E000BF00BF012070BD10B500242420DB
:102C200000F031FA0446AFF24D006060AFF2B70039
:102C30006061AFF23710A061AFF2AF10E061AFF2A8
:102C400049202062204610BD10B50446224640218E
:102C5000FE48FDF71FFE10BD10B504462246802138
:102C6000FA48FDF717FE10BD10B58021F748FDF7B3
:102C7000F3FD10BD1CB501210220FEF729F8C0208C
:102C8000009001208DF8040003208DF8050000203D
:102C90008DF806008DF807006946EC48FDF77AFDCF
:102CA000FFF7BBFFEA490860AFF25300096888608C
:102CB000AFF26B00E6490968C860AFF25300E4491F
:102CC000096808611CBD70B50446E14800682346E8
:102CD000002278214569DE480068A84770BD70B5BC
:102CE0000446DB4800682346402278214569D848DD
:102CF0000068A84770BD70B505460C4645F0B000A9
:102D0000FFF7E1FF102141EA1410FFF7DCFF04F0A8
:102D10000F00FFF7D8FF70BD70B500240EE0002152
:102D20002046FFF7E8FF002504E00020FFF7D7FF6B
:102D3000681CC5B2802DF8DB601CC4B2082CEEDB29
:102D400070BD2DE9F04105460E461746721ED206AB
:102D5000110E6A1E5206100EFFF7CDFF002409E087
:102D6000A7F12001BB4A02EB0111085DFFF7B7FF95
:102D7000601CC4B2082CF3DB721ED206110E6A1E50
:102D8000012303EB4202D0B2FFF7B5FF00240BE0B2
:102D9000A7F12001AF4A02EB011204F10801505CD7
:102DA000FFF79DFF601CC4B2082CF1DBBDE8F08189
:102DB0002DE9F04107460E461546002407E02A5D3E
:102DC0003019C1B23846FFF7BCFF601CC4B2285DA1
:102DD0000028F4D1BDE8F08170B505460C460CB969
:102DE000012070BD04F0010028B1611E2846FFF7E4
:102DF000F3FF6843F5E761082846FFF7EDFF064655
:102E000006FB06F0EDE72DE9FF5F84B08946144626
:102E10001D464FF0000AD04600210846611A75EBA6
:102E200000000CDA2D2249460498FFF78AFF0022A1
:102E3000644262EB050509F1010000F0FF09264636
:102E40002F4634463D46002186EA0100794008437A
:102E500002D14FF0010A11E00BE00A2200233046B4
:102E6000394600F03FF906460F460AF101001FFA05
:102E700080FA00210846891BB841EEDB23E0AAEB6B
:102E80000800411E0A20FFF7A7FF002102460B465B
:102E9000CDE900012046294600F024F90A2200234A
:102EA000CDE9020100F01EF93020101800F0FF0BF0
:102EB00009EB0800C1B25A460498FFF742FF08F137
:102EC00001001FFA80F8D045D9DB08B0BDE8F09FBB
:102ED0002DE9F0478146884615461E46002D06DB43
:102EE0002B2241464846FFF72CFF2F4605E02D22B6
:102EF00041464846FFF725FF6F42002417E0301B8C
:102F0000411E0A20FFF768FFB7FBF0F00A21B0FB73
:102F1000F1F201FB120000F1300A08EB0400401C42
:102F2000C1B252464846FFF70CFF601CC4B2B4421F
:102F3000E5DBBDE8F0872DE9F04781460E46904677
:102F40001F4600241DE0381B411E1020FFF744FFE0
:102F5000B8FBF0F000F00F050A2D08DA05F130009B
:102F6000C2B23019C1B24846FFF7EBFE07E005F1E7
:102F70003700C2B23019C1B24846FFF7E2FE601C0A
:102F8000C4B2BC42DFDBBDE8F0872DE9F0478046E4
:102F90000E4617461D46002412E0281B411E022043
:102FA000FFF71AFFB7FBF0F000F0010000F1300965
:102FB0003019C1B24A464046FFF7C3FE601CC4B296
:102FC000AC42EADBBDE8F08770B5002406E00025DE
:102FD00000E06D1CB5F57A7FFBD3641CB4F57A7FF5
:102FE000F5D3FFF747FEAE20FFF76DFED520FFF7C4
:102FF0006AFE8020FFF767FEA820FFF764FE3F20EF
:10300000FFF761FED320FFF75EFE0020FFF75BFEB7
:103010004020FFF758FEA120FFF755FEC820FFF71C
:1030200052FEDA20FFF74FFE1220FFF74CFE812000
:10303000FFF749FECF20FFF746FED920FFF743FEFA
:10304000F120FFF740FEDB2006E000000004024014
:1030500030020020BE350008FFF735FE3020FFF7B4
:1030600032FEA420FFF72FFEA620FFF72CFE8D20B6
:10307000FFF729FE1420FFF726FEAF20FFF723FEFF
:10308000FFF74AFE70BD70B5064600F0FBF8056814
:1030900006F10B0020F00704B4429CBF002070BD75
:1030A0002B466A68BAB11068A04210D304F1080137
:1030B00088423CBF5068586007D35168101941607E
:1030C0001168091B016058601460101D70BD134623
:1030D0005268002AE7D12146284600F0DBF8002894
:1030E000DED170BD10B54C1084EA530404D54042C3
:1030F000C1F1000138BF491E1B4204D55242C3F141
:10310000000338BF5B1E00F036F914F0804F04D086
:103110004042C1F1000138BF491E14F0004F04D0F5
:103120005242C3F1000338BF5B1E10BD10B5431CF3
:1031300002E010F8011B71B18107FAD14FF00132A2
:1031400002C88C1A8C4314EAC211F9D0C01A0A06BC
:1031500003D0C01E10BDC01A10BD0A0401D0801ECD
:1031600010BD0902FCD0401E10BD4FF00002042922
:10317000C0F0128010F0030C00F01B80CCF1040CA6
:10318000BCF1020F18BF00F8012BA8BF20F8022BDA
:10319000A1EB0C0100F00DB85FEAC17C24BF00F880
:1031A000012B00F8012B48BF00F8012B70474FF0AE
:1031B000000200B5134694469646203922BFA0E887
:1031C0000C50A0E80C50B1F12001BFF4F7AF090793
:1031D00028BFA0E80C5048BF0CC05DF804EB890084
:1031E00028BF40F8042B08BF704748BF20F8022BC7
:1031F00011F0804F18BF00F8012B70474FF0013CD1
:1032000050F8042B51F8043B9A4221D1A2EB0C0355
:10321000934313EACC1317D150F8042B51F8043B15
:103220009A4215D1A2EB0C03934313EACC130BD1B2
:1032300050F8042B51F8043B9A4209D1A2EB0C033D
:10324000934313EACC13DBD04FF00000704700BF6C
:10325000D01A01BAB1FA81F101F0180122FA01F095
:10326000CB40C1F12001DBB2C0B2C01A2CFA01F38D
:10327000D11A914311EAC311E6D1704770477047E4
:103280007047000000487047680200207047704790
:103290007047704738B504460A4600206946AFF3C8
:1032A0000080002808BF38BD02460099204600F083
:1032B000DDF8012038BD012000F0F2B8F8B5AFF319
:1032C0000080054600200C46102000BF0646A819C5
:1032D000A0420DD9324669460020AFF300800700B6
:1032E00008BF00F0DDF80098A04218BF0546C419D9
:1032F000FFF7C8FF05600746F01D20F007004619DC
:10330000284600F00AF8B44208BFF8BDA21B3146B7
:103310003868BDE8F84000F0A9B800210160C0E9B4
:10332000011070471020704770B50446051FFFF765
:10333000A9FF0068002C14BF446870BD002C18BFA2
:10334000AC423CBF20466468F8D301680A18AA4220
:1033500018BF456003D12A680546114401602868FA
:103360004119A1421CBF6C6070BD61686960216831
:103370000844286070BD53EA020C00F069802DE912
:10338000F04B4FF00006002B1FBFB3FA83F503FA92
:1033900005F424FA05F65E4012BF1643B2FA82F530
:1033A00002FA05F4C5F120051EBF22FA05FC44EA25
:1033B0000C04203556EA044C4FEA144418BF641C30
:1033C0004FF000084FF00009904271EB030C39D325
:1033D000002919BFB1FA81F701FA07F6B0FA80F7B0
:1033E00000FA07F6C7F120071EBF20FA07FC46EADD
:1033F0000C062037B6FBF4FCA7EB0507103F07F0DF
:103400001F0BCBF120060CFA0BFB2CFA06F644BF7F
:10341000B3460026202FA4BF5E464FF0000B5BEAA8
:10342000060C08BF4FF0010B19EB0B09ABFB027C3C
:1034300048EB0608C01B06FB02CC0BFB03CC71EB70
:103440000C01C1E70B46024641464846BDE8F08BF9
:1034500013B54FF000004FF00001AFF30080BDE85E
:103460001C407047004870476002002003464068D7
:103470008C46002818BF88423CBF03464068F8D3FA
:1034800018681844884207D00CF1030020F00700A8
:10349000001D411A521A0146081D0A60FFF744BF79
:1034A00010B500F039F8BDE8104000F02FB87047B3
:1034B0007546FFF7D7FFAE4605006946534620F034
:1034C0000700854618B020B5FDF75CF8BDE8204040
:1034D0004FF000064FF000074FF000084FF0000BD0
:1034E00021F00701AC46ACE8C009ACE8C009ACE883
:1034F000C009ACE8C0098D46704710B50446AFF36B
:1035000000802046BDE81040FCF7ABBE002801D08B
:1035100000F02AB87047000010B5012805D000213E
:1035200003A000F027F8012010BD09A1F8E7000072
:1035300053494752544D454D3A204F7574206F669C
:103540002068656170206D656D6F72790000000004
:103550003A2048656170206D656D6F727920636FE8
:10356000727275707465640001491820ABBEFEE785
:103570002600020070B505460C460A2000E06D1CCE
:1035800000F011F835B128780028F8D102E0641C69
:1035900000F009F814B120780028F8D1BDE8704097
:1035A0000A20AFF3008008B569468DF800000320BB
:1035B000ABBE08BD4FF04070E1EE100A704700004E
:1035C00000000000000000000000000000000000FB
:1035D00000F8000000000000003330000000001080
:1035E0000C06100C0600000000000000000040C0A7
:1035F0007840C0784000043F04043F040400007099
:1036000088FC08300000001820FF211E0000F00890
:10361000F000E018000000211C031E211E0000F035
:103620000888700000001E2123241927211010167D
:103630000E0000000000000000000000000000007C
:1036400000E01804020000000007182040000002FB
:103650000418E0000000004020180700000040406F
:1036600080F0804040000202010F010202000000D1
:1036700000F0000000000101011F01010100000035
:1036800000000000000080B070000000000000009A
:103690000000000000000001010101010101000023
:1036A00000000000000000303000000000000000BA
:1036B000000080601804006018060100000000E0AF
:1036C00010080810E000000F102020100F0000105C
:1036D00010F8000000000020203F202000000070B3
:1036E00008080888700000302824222130000030AB
:1036F0000888884830000018202020110E000000A3
:10370000C02010F8000000070424243F240000F823
:103710000888880808000019212020110E0000E008
:10372000108888180000000F112020110E000038AA
:103730000808C83808000000003F000000000070C2
:10374000880808887000001C222121221C0000E04B
:1037500010080810E0000000312222110F000000C4
:1037600000C0C00000000000003030000000000079
:1037700000800000000000008060000000000000E9
:103780008040201008000001020408102000404082
:1037900040404040400004040404040404000008C5
:1037A000102040800000002010080402010000707A
:1037B00048080808F0000000003036010000C03062
:1037C000C828E810E0000718272423140B00000085
:1037D000C038E0000000203C23020227382008F80F
:1037E000888888700000203F202020110E00C03003
:1037F000080808083800071820202010080008F8DA
:1038000008080810E000203F202020100F0008F8D2
:103810008888E8081000203F20202320180008F89E
:103820008888E8081000203F200003000000C03016
:1038300008080838000007182020221E020008F897
:1038400008000008F808203F210101213F2000085E
:1038500008F8080800000020203F20200000000099
:103860000808F8080800C08080807F00000008F881
:1038700088C028180800203F20012638200008F8BA
:10388000080000000000203F20202020300008F821
:10389000F800F8F80800203F003F003F200008F83B
:1038A00030C00008F808203F200007183F00E01053
:1038B00008080810E0000F10202020100F0008F862
:1038C00008080808F000203F210101010000E01075
:1038D00008080810E0000F18242438504F0008F89A
:1038E000888888887000203F2000030C30200070FA
:1038F0008808080838000038202121221C001808F8
:1039000008F8080818000000203F2000000008F810
:1039100008000008F808001F202020201F00087859
:10392000880000C83808000007380E010000F808B9
:1039300000F80008F800033C0700073C03000818E3
:1039400068808068180820302C03032C3020083849
:10395000C800C83808000000203F20000000100800
:103960000808C83808002038262120201800000048
:1039700000FE020202000000007F40404000000CF8
:1039800030C000000000000000010638C000000246
:103990000202FE000000004040407F0000000000E6
:1039A0000402020204000000000000000000000009
:1039B0000000000000008080808080808080000205
:1039C00002040000000000000000000000000000F1
:1039D0008080808000000019242222223F2008F8E5
:1039E000008080000000003F112020110E00000028
:1039F000008080800000000E1120202011000000B7
:103A000000808088F800000E112020103F20000068
:103A1000808080800000001F22222222130000806C
:103A200080F0888888180020203F202000000000B7
:103A3000808080808000006B94949493600008F8EC
:103A4000008080800000203F210000203F20008077
:103A50009898000000000020203F20200000000077
:103A600000809898000000C08080807F000008F8E7
:103A7000000080808000203F24022D3020000008BC
:103A800008F8000000000020203F20200000808077
:103A9000808080808000203F20003F20003F808089
:103AA000008080800000203F210000203F20000097
:103AB000808080800000001F202020201F00808048
:103AC00000808000000080FFA12020110E00000077
:103AD000008080808000000E112020A0FF80808068
:103AE00080008080800020203F2120000100000015
:103AF00080808080800000332424242419000080EA
:103B000080E0808000000000001F202000008080F6
:103B1000000000808000001F202020103F208080B7
:103B200080000080808000010E3008060100808047
:103B30000080008080800F300C030C300F0000806C
:103B40008000808080000020312E0E312000808097
:103B500080000080808080818E70180601000080C7
:103B60008080808080000021302C222130000000E5
:103B70000000807C020200000000003F4040000086
:103B80000000FF00000000000000FF000000000235
:103B9000027C800000000040403F00000000000662
:103BA0000101020204040000000000000000000007
:103BB000D03B00080000002034020000C4010008CF
:103BC000343C0008340200208C060000200200086B
:103BD00033D020847A030A68090102030406070827
:103BE000090CA91006196572726F72080A1A4C4501
:103BF000445F475F4F46461E0A184E3C0A1B523C24
:103C0000191E09193C0A1B423C191E09153C0C17C8
:103C1000414C4C1C212F57415445525F42091224FC
:103C20000808155452414646494320295A06D343B1
:043C30004C4F53455D
:040000050800018965
:00000001FF
